:020000040800F2
:1000000020070020651B00086D1B00086F1B0008FF
:10001000711B0008731B0008751B0008000000001E
:10002000000000000000000000000000771B000836
:10003000791B0008000000007B1B0008431000082B
:100040007F1B00087F1B00087F1B00087F1B000828
:100050007F1B00087F1B00087F1B00087F1B000818
:100060007F1B00087F1B00087F1B00087F1B000808
:100070007F1B00087F1B00087F1B00087F1B0008F8
:100080007F1B00087F1B00087F1B00087F1B0008E8
:10009000651A00087F1B00087F1B00087F1B0008F3
:1000A0007F1B00087F1B00087F1B000889110008C8
:1000B000E51200087F140008D51500087F1B000812
:1000C0007F1B00087F1B00087F1B00087F1B0008A8
:1000D0007F1B0008010B0008DB0D0008910E0008D3
:1000E0007F1B00087F1B00087F1B00087F1B000888
:1000F0007F1B00087F1B0008B51800087F1B000845
:100100007F1B00087F1B00082B1700087F1B0008BF
:100110007F1B00087F1B00087F1B00087F1B000857
:100120007F1B00087F1B00087F1B00087F1B000847
:10013000DFF80CD004F040FA004800474B030008F9
:100140002007002008B50121182002F0A7F8202080
:10015000ADF8000003208DF8020010208DF8030098
:100160006946FE4801F0DEFD2021FC4801F089FED1
:100170000320ADF8000010208DF8030003208DF857
:1001800002006946F64801F0CDFD08BDF54800784B
:1001900000F08000F8B1F44800881430F34908807A
:1001A000F14800881430B0F5803F02DB4FF6FF7055
:1001B0000880EC48007800F03F00ED4908600846F0
:1001C000006818B14FF6FF70E84908800020E84940
:1001D0000860E4490870E748007800F08000F8B152
:1001E000E54800881430E1494880E348008814302D
:1001F000B0F5803F02DB4FF6FF704880DD480078A5
:1002000000F03F00DA4908600846006818B14FF670
:10021000FF70D64948800020D5490860D54908704C
:10022000D648007800F08000F8B1D5480088143036
:10023000CE498880D24800881430B0F5803F02DB78
:100240004FF6FF708880CD48007800F03F00C84925
:1002500008600846006818B14FF6FF70C3498880EF
:100260000020C3490860C5490870C648007800F0FE
:100270008000F8B1C44800881430BC49C880C24826
:1002800000881430B0F5803F02DB4FF6FF70C88065
:10029000BC48007800F03F00B54908600846006897
:1002A00018B14FF6FF70B149C8800020B04908600E
:1002B000B4490870B548007800F08000F8B1B4483F
:1002C00000881430A9490881B14800881430B0F57D
:1002D000803F02DB4FF6FF700881AC48007800F0E9
:1002E0003F00A34908600846006818B14FF6FF7048
:1002F0009E49088100209E490860A4490870A548CD
:10030000007800F08000F8B1A348008814309749C5
:100310004881A14800881430B0F5803F02DB4FF6D9
:10032000FF7048819B48007800F03F0090490860CA
:100330000846006818B14FF6FF708C4948810020CC
:100340008B4908609349087070470024002500F02D
:10035000FAFA00F079FB00F023FEFFF7F3FE03F05A
:1003600016FE08214FF6FE7001F08DF908214FF6B8
:10037000FE7000F062FF08214FF6FE7001F028F8D1
:1003800008214FF6FE7000F0ACFE08214FF6FE701B
:1003900001F0CEF808214FF6FE7001F039FA00F0B6
:1003A00053FB00F0E1FB00F039FC4FF47A7000F0F1
:1003B0008FFE4FF47A7000F08BFE01F08FFB00BFD0
:1003C00004E0302075490855601CC4B2632CF8DB8A
:1003D000FF207249087048701EE2FFF7D7FE704890
:1003E000007801287DD1002600276E4841696E48BB
:1003F00000F090FD00B26D4908800846B0F9000099
:10040000401C002871D06748816A674800F082FD6F
:1004100000B2674908800846B0F90000401C002877
:1004200063D00846008861490988401AC01F00B29D
:100430006049088008460088012810D15A495B4865
:10044000B0F90000C01D085C5B49087008460078E0
:100450003038087008460078584908700927554810
:100460000088022825D150495048B0F90000C01D2D
:10047000085C514908700846007830380870084612
:10048000007800EB80004006000E0870464947489F
:10049000B0F900000830085C494908700846007847
:1004A0003038087044480078097808444349087097
:1004B0000A2700260AE03D48B0F9000038443044DD
:1004C0003949085C3F498855701CC6B23B480078E2
:1004D0008642F0DB3C493D4800F0FCFB3CA13B4838
:1004E00001E012E001E000F0F5FB0020394908705E
:1004F000002604E000202C498855701CC6B2642EEA
:10050000F8DB00202649087000BF33480078012836
:100510006AD10026002723484169304800F0FAFCE0
:1005200000B22F4908800846B0F90000401C00289E
:100530007ED01C48816A294800F0ECFC00B22949B1
:1005400008800846B0F90000401C002870D008461A
:10055000008823490988401AC01F46E0000C01406A
:10056000001001404000002046000020180100203B
:1005700018000020440000204E0000204100002010
:1005800048000020420000204A00002043000020D4
:100590004C000020450000205000002042010020B7
:1005A00039000020D80000200A0200206800002046
:1005B0006A0000206C0000207900002078000020F4
:1005C0007A000020E40200202401002000380140CD
:1005D0000D0A00003B0000203A0000206E020020BF
:1005E0006E0000207000002064E000B28B4908809B
:1005F00008460088012810D189498A48B0F90000CE
:10060000C01D085C884908700846007830380870BA
:100610000846007885490870092780480088022824
:1006200027D17F497F48B0F90000C01D085C00E079
:1006300030E07D4908700846007830380870084678
:10064000007800EB80004006000E08707449754881
:10065000B0F900000830085C754908700846007859
:100660003038087070480078097808446F4908707D
:100670000A2700260AE06B48B0F9000038443044ED
:100680006749085C6B498855701CC6B2674800789A
:100690008642F0DB002068490870002604E0002054
:1006A0005F498855701CC6B2642EF8DB0020634990
:1006B000087000BF002062490870624908700DE0B0
:1006C000614860490978405C5D49097808445C49A3
:1006D00008705C480078401C5A49087059480078F6
:1006E0000928EDDB5848407A55490978884214D1E9
:1006F0000020544908700CE0534852490978405C86
:100700005249504A127888544E480078401C4D494E
:1007100008704C4800780928EEDB00204849087032
:10072000484908700DE0434846490978405C44490F
:10073000097808444249087042480078401C414901
:100740000870404800780928EDDB3A48407A3C4977
:100750000978884214D100203A4908700CE03548E5
:1007600038490978405C3949364A12788854354806
:100770000078401C33490870324800780928EEDBC5
:10078000002430E0324830F8142032A1324803F01F
:1007900035FF002507E03048405D10B9AA202E49FA
:1007A0004855681CC5B2052DF5DB2C4805780BE0D3
:1007B000681E2949095C2948007804FB0050401C48
:1007C000274A1154681EC5B2002DF1DC002504E053
:1007D000002021494855681CC5B220480078854250
:1007E000F6DB601CC4B2062CCCDB00240CE01748FE
:1007F000015D04F12000154A127A082303FB020070
:10080000174A1154601CC4B2082CF0DB5021144864
:1008100003F07CFD13490860DFE500007200002052
:100820006E0200206E0000207C0000207B00002073
:100830007D000020020300203C0000203A00002040
:100840000100002000000020E4020020240100201C
:100850001801002025640000100000200F00002077
:10086000420100201C0000200CB5002001900090E7
:100870006C48006840F480306A49086000BF6948ED
:10088000006800F4003000900198401C019000982E
:1008900018B90198B0F5A06FF1D16248006800F472
:1008A000003010B10120009001E00020009000987D
:1008B000012843D15C48006840F010005A490860A4
:1008C0000846006820F0030008600846006840F011
:1008D0000200086053484068524948600846406832
:1008E00048600846406840F48060486008464068B8
:1008F00020F47C1048600846406840F4E8104860E6
:100900000846006840F08070086000BF45480068F5
:1009100000F000700028F9D04248406820F0030041
:10092000404948600846406840F00200486000BF07
:100930003C48406800F00C000828F9D10CBD10B507
:10094000FFF792FF10BD10B53648006840F0010077
:1009500034490860084640683449084031494860D5
:1009600008460068324908402E4908600846006879
:1009700020F4802008600846406820F4FE004860AB
:100980004FF41F008860FFF7DAFF4FF0006029493D
:10099000086010BD10B5002100200022214B5B68CB
:1009A00003F00C0121B1042906D0082928D107E061
:1009B000214B224C236027E01F4B204C236023E077
:1009C000184B5B6803F47010164B5B6803F48032BD
:1009D000022303EB904022B9194B4343174C236089
:1009E0000DE0104B5B6803F4003323B1144B434319
:1009F000124C236003E0104B4343104C236003E090
:100A00000D4B0E4C236000BF00BF064B5B68C3F369
:100A100003130C4CE15C094B1B68CB40074C236073
:100A200010BD000000100240002002400000FFF84E
:100A3000FFFFF6FE08ED00E000127A002000002023
:100A400000093D002400002000B587B0FE4801F0F9
:100A500089FC4FF4806001F097F825208DF80400A0
:100A600000208DF805008DF8060001208DF80700A4
:100A700001A801F08EF80121052001F00FFC0121F1
:100A8000880301F00BFC4FF40070ADF8180018203B
:100A90008DF81B0003208DF81A0006A9EB4801F021
:100AA00041F94FF48060ADF8180004208DF81B0068
:100AB00006A9E64801F036F94FF4E1300290002033
:100AC000ADF80C00ADF80E00ADF81000ADF8140054
:100AD0000C20ADF8120002A9DB4801F086FC40F2C0
:100AE0002551D94801F0F5FD012240F22551D648A3
:100AF00001F013FD0121D44801F003FD07B000BD52
:100B000010B540F22551D04801F0ECFD48B1CE4877
:100B100001F068FDCE49087008460178CD4801F023
:100B20005DFD40F22551C84801F006FE10BD70B5CC
:100B300004460D46E1B2C44801F050FD00BF40211B
:100B4000C14801F0B9FD0028F9D0204670BD00BFB2
:100B5000BD48008800F020000028F9D0BA48001DE8
:100B60000088C0F30800704700B587B0B94801F0AD
:100B7000F9FB4FF4806001F007F826208DF804009F
:100B800000208DF805008DF8060001208DF8070083
:100B900001A800F0FEFF0121052001F07FFB0121EB
:100BA000480401F088FB0420ADF8180018208DF8E7
:100BB0001B0003208DF81A0006A9A44801F0B2F822
:100BC0000820ADF8180004208DF81B0006A99F48E6
:100BD00001F0A8F84FF4E13002900020ADF80C00CD
:100BE000ADF80E00ADF81000ADF814000C20ADF813
:100BF000120002A9974801F0F8FB40F225519548F0
:100C000001F067FD012240F22551924801F085FC78
:100C10000121904801F075FC07B000BD00B587B018
:100C20008D4801F09FFB4FF4806000F0ADFF27205E
:100C30008DF8040000208DF805008DF806000120D5
:100C40008DF8070001A800F0A4FF0121092001F0A0
:100C500025FB0121880401F02EFB4FF48060ADF8E4
:100C6000180018208DF81B0003208DF81A0006A923
:100C70007A4801F057F84FF40060ADF818000420EE
:100C80008DF81B0006A9754801F04CF84FF4E130CF
:100C900002900020ADF80C00ADF80E00ADF8100089
:100CA000ADF814000C20ADF8120002A96A4801F05A
:100CB0009CFB40F22551684801F00BFD012240F2F7
:100CC0002551654801F029FC0121634801F019FC18
:100CD00007B000BD0FB470B586B006460CA80190F1
:100CE00073E00B9800785C281CD10B98401C0B908B
:100CF00000786E2809D072280FD10D21304601F0FE
:100D00006DFC0B98401C0B900BE00A21304601F063
:100D100065FC0B98401C0B9003E00B98401C0B905B
:100D200000BF4BE00B980078252840D10B98401C61
:100D30000B900078642818D0732833D1019810C81C
:100D400001900BE02178304601F048FC00BF4021C3
:100D5000304601F0B1FC0028F9D0641C207800284E
:100D6000F0D10B98401C0B9020E0019820C8019016
:100D70002A463BA102A803F041FC02AC0BE021781B
:100D8000304601F02BFC00BF4021304601F094FCBE
:100D90000028F9D0641C20780028F0D10B98401C62
:100DA0000B9003E00B98401C0B9000BF06E00B98E3
:100DB00010F8011B0B90304601F010FC00BF4021E1
:100DC000304601F079FC0028F9D00B980078002813
:100DD00087D106B070BC5DF814FB10B540F2255108
:100DE0001C4801F07FFC00284CD01A4801F0FAFBA7
:100DF0001C490870084600781B491C4A1278885420
:100E000008461A490978405C19491A4A12788854E8
:100E100018480078401C1749087014480078401C96
:100E200012490870084600782D2801DD002008705E
:100E3000104800785F2802DD00200E49087009483C
:100E400000780A281ED117E0003801400008014050
:100E5000360000200044004000480040000C0140E3
:100E60002564000034000020A60100203500002089
:100E70000A0200203B00002000203F4908700120AA
:100E80003E49087040F225513D4801F055FC10BD27
:100E900010B540F225513B4801F024FC002833D026
:100EA000384801F09FFB38490870084600783749F8
:100EB000374A12788854084635490978405C3549E4
:100EC000354A1278885434480078401C32490870FA
:100ED0002F480078401C2E490870084600782D28BD
:100EE00001DD002008702C4800785F2802DD00201A
:100EF00029490870244800780A2805D1002024498F
:100F0000087001202549087040F225511D4801F064
:100F100013FC10BD2DE9F04706460C4606B11CB97E
:100F20004FF0FF30BDE8F087204603F025FA8246F7
:100F3000304603F021FA8146D14502DA4FF0FF3006
:100F4000F0E7B0464546274610E0287839788842D1
:100F500002D16D1C7F1C03E008F1010845462746BD
:100F6000387818B9A81B391B401ADBE72878002805
:100F7000EBD1401ED6E700003500002039000020EC
:100F8000004400400048004037000020D801002005
:100F9000380000206E0200203C0000203A000020B3
:100FA0002DE9F0410020FD490860FD48006803F08C
:100FB00059FA06460022FB4B03F0E5F9044603F01C
:100FC0005EFAF6494860F648006803F04BFA0646B8
:100FD0000022F54B03F0D7F9044603F050FAEF492D
:100FE00088600A20C8600846C0684FF47A72B2FB75
:100FF000F0F0EB4A1268B2FBF0F1B1F1807F00D360
:101000001DE021F07F40401E4FF0E022506150175C
:101010000F22002807DA13071D0EE44B00F00F041F
:10102000241F1D5503E013071C0EE14B1C5400BF89
:1010300000204FF0E02290610720106100BFBDE862
:10104000F081D6480068D549C9680844D34908608A
:10105000D848D0E900100A3140F10000D54AC2E971
:10106000001070474FF0E02040694FF0E02189699F
:10107000401ACA494968B0FBF1F0C84A12684FF4F7
:101080007A73A2FB0332C01842F1000170474FF09F
:10109000E02040694FF0E0218969401ABF49896822
:1010A000B0FBF1F0BD4909680844704770B50446CB
:1010B000FFF7D8FF021941F10000951E60F100060C
:1010C00000BFFFF7CFFF281A76EB0100F9D270BD01
:1010D00010B504464FF47A7104FB01F0FFF7E6FF08
:1010E00010BD30B589B005460C460121C80201F09B
:1010F000D5F80121042001F0D1F84FF48070ADF84B
:10110000200004208DF8230008A9AB4800F00AFE57
:10111000ADF81850ADF814400020ADF81A00ADF845
:10112000160005A9A54801F0F5FB0020ADF8040064
:10113000ADF806000120ADF808000020ADF80A0067
:10114000ADF80C0001A99D4801F077FE50219B48A5
:1011500001F076FF1B208DF8100002208DF81100A1
:1011600000208DF8120001208DF8130004A800F073
:1011700010FD01220321914801F043FF01218F4816
:1011800001F024FF09B030BD10B58D48007800F0A3
:10119000800000284CD10121884802F0E0F9D0B14C
:1011A0008748007800F04000A8B18548007800F03A
:1011B0003F003F280AD18248007840F080008049F3
:1011C00008704FF6FF707F49088004E07C48007883
:1011D000401C7B4908700221784802F0C0F938B3FE
:1011E0007748007800F0400078B17548007840F00A
:1011F000800073490870714802F092F971490880C3
:1012000000216E4802F094F812E000206C4908704A
:101210006C4908800021694802F06CF96848007840
:1012200040F04000664908700221644802F080F8EE
:101230000321624802F0A4F910BD30B589B005461B
:101240000C460121084601F036F80121042001F086
:1012500025F80220ADF8200004208DF8230008A90D
:10126000554800F05FFD0221534800F00AFEADF83A
:101270001850ADF814400020ADF81A00ADF8160073
:1012800005A94FF0804001F045FB0420ADF80400B3
:101290000020ADF806000120ADF808000020ADF8F0
:1012A0000A00ADF80C0001A94FF0804001F0C5FD27
:1012B0001C208DF8100002208DF8110000208DF800
:1012C000120001208DF8130004A800F062FC012236
:1012D0000521880701F095FE0121880701F076FEBF
:1012E00009B030BD10B53848007800F08000002803
:1012F0004FD10121880702F032F9D0B1324800788D
:1013000000F04000A8B13048007800F03F003F28CE
:101310000AD12D48007840F080002B4908704FF624
:10132000FF702A49088004E027480078401C2649BD
:1013300008700421080702F012F950B3224800781F
:1013400000F0400088B12048007840F080001E493D
:1013500008704FF0804002F0E6F81C490880002138
:101360004FF0804001F0F6FF13E0002016490870AE
:101370001649088000214FF0804002F0BBF8124867
:10138000007840F04000104908700221480701F041
:10139000E1FF0521880702F0F3F810BDD402002018
:1013A0002000002080842E4100408F4018ED00E096
:1013B00000E400E06000002000080140002C014033
:1013C000430000204C000020410000204800002085
:1013D00030B589B005460C460121022000F06BFFB4
:1013E0000121102000F05AFF0121FC4800F06BFDA4
:1013F0008020ADF8200004208DF8230008A9F848CB
:1014000000F090FC8021F64800F03BFDADF818504C
:10141000ADF814400020ADF81A00ADF8160005A98B
:10142000F04801F077FA0420ADF804000020ADF890
:1014300006000120ADF808000020ADF80A00ADF864
:101440000C0001A9E74801F0F8FC1D208DF8100000
:1014500002208DF8110000208DF8120001208DF877
:10146000130004A800F095FB01220521DD4801F0DE
:10147000C8FD0121DB4801F0A9FD09B030BD10B560
:10148000D948007800F0800000284CD10121D548CF
:1014900002F065F8D0B1D448007800F04000A8B15F
:1014A000D148007800F03F003F280AD1CE480078AC
:1014B00040F08000CC4908704FF6FF70CB4908809F
:1014C00004E0C9480078401CC74908700421C54899
:1014D00002F045F838B3C448007800F0400078B115
:1014E000C148007840F08000BF490870BD4802F054
:1014F0001AF8BE4908800021BA4801F02BFF12E01B
:101500000020B9490870B94908800021B54801F0A8
:10151000F1FFB548007840F04000B349087002215F
:10152000B04801F017FF0521AE4802F029F810BDC0
:1015300030B589B005460C460121042000F0BBFE01
:101540000121082000F0AAFE4020ADF82000042070
:101550008DF8230008A9A64800F0E4FB4021A44828
:1015600000F08FFCADF81850ADF814400020ADF835
:101570001A00ADF8160005A99E4801F0CBF900202D
:10158000ADF80400ADF806000120ADF80800002019
:10159000ADF80A00ADF80C0001A9964801F04DFC29
:1015A0001E208DF8100002208DF8110000208DF80B
:1015B000120001208DF8130004A800F0EAFA0122BD
:1015C00003218C4801F01DFD01218A4801F0FEFC39
:1015D00009B030BD10B58848007800F080000028C0
:1015E0004CD10121834801F0BAFFD0B18248007884
:1015F00000F04000A8B18048007800F03F003F288C
:101600000AD17D48007840F080007B4908704FF691
:10161000FF707A49088004E077480078401C7649DA
:1016200008700221734801F09AFF38B372480078BD
:1016300000F0400078B17048007840F080006E49BA
:1016400008706C4801F06CFF6C4908800021694803
:1016500001F06EFE12E000206749087067490880BB
:101660000021644801F046FF6348007840F04000E4
:101670006149087002215F4801F05AFE03215D486C
:1016800001F07EFF10BD30B589B005460C46012142
:10169000082000F010FE0121052000F0FFFD0120D0
:1016A000ADF8200004208DF8230008A9544800F06C
:1016B00039FB0121524800F0E4FBADF81850ADF8B9
:1016C00014400020ADF81A00ADF8160005A94D48E9
:1016D00001F020F90020ADF80400ADF8060001206B
:1016E000ADF808000020ADF80A00ADF80C0001A923
:1016F000444801F0A2FB32208DF8100002208DF842
:10170000110000208DF8120001208DF8130004A8AC
:1017100000F03FFA012203213A4801F072FC012156
:10172000384801F053FC09B030BD10B53648007898
:1017300000F0800000284CD10121324801F00FFF59
:10174000D0B13148007800F04000A8B12E480078B0
:1017500000F03F003F280AD12B48007840F080007D
:10176000294908704FF6FF702849088004E0264890
:101770000078401C244908700221224801F0EFFE45
:1017800038B32148007800F0400078B11E48007856
:1017900040F080001C4908701A4801F0C1FE1B4946
:1017A00008800021174801F0C3FD12E0002016490F
:1017B0000870164908800021124801F09BFE12486B
:1017C000007840F040001049087002210D4801F0F7
:1017D000AFFD03210B4801F0D3FE10BD000C1A0031
:1017E0000010014000040040440000204E00002092
:1017F000000C014000080040420000204A00002088
:1018000000080140000C004040000020460000207D
:1018100030B589B005460C460121480300F03EFD75
:101820000121102000F03AFD4020ADF820000420F6
:101830008DF8230008A94C4800F074FAADF8185050
:10184000ADF814400020ADF81A00ADF8160005A957
:10185000464801F05FF80020ADF80400ADF806003E
:101860000120ADF808000020ADF80A00ADF80C002A
:1018700001A93E4801F0E1FA50213C4801F0E0FBAB
:101880002E208DF8100002208DF8110000208DF818
:10189000120001208DF8130004A800F07AF901224B
:1018A0000321324801F0ADFB0121304801F08EFBED
:1018B00009B030BD10B52E48007800F08000002837
:1018C0004CD10121294801F04AFED0B128480078C6
:1018D00000F04000A8B12648007800F03F003F2803
:1018E0000AD12348007840F08000214908704FF663
:1018F000FF702049088004E01D480078401C1C4906
:1019000008700221194801F02AFE38B318480078FF
:1019100000F0400078B11648007840F0800014498B
:101920000870124801F0FCFD1249088000210F48A0
:1019300001F0FEFC12E000200D4908700D490880FE
:1019400000210A4801F0D6FD0948007840F0400027
:10195000074908700221054801F0EAFC0321034809
:1019600001F00EFE10BD00000010014000340140E7
:10197000450000205000002000B589B0554801F016
:1019800003FE06A801F024FF00208DF81E008DF84C
:101990001F008DF820008DF821008DF822008DF8B1
:1019A00023008DF81A008DF81B0002208DF81C0012
:1019B00001208DF81D003020ADF8180006A945481B
:1019C00001F0FBFD00208DF812008DF813000120BE
:1019D0008DF814000020ADF80800ADF80A00ADF84D
:1019E0000C00ADF80E00ADF8100001208DF81500C8
:1019F00002A801F06CFE01220221364802F066F9CD
:101A00004FF4C06000F0C0F814208DF804000020EE
:101A10008DF805008DF8060001208DF8070001A85B
:101A200000F0B7F801214FF4EA1000F04CFA4FF43F
:101A30008070ADF8000048208DF803006946264804
:101A400000F070F94FF40070ADF8000003208DF83D
:101A5000020018208DF8030069461F4800F062F963
:101A600009B000BD00B58BB006AA0021194802F0EC
:101A700012F806980190079802909DF820008DF8C2
:101A80000C009DF821008DF80D009DF822008DF8C6
:101A90000E009DF823008DF80F0006A8017B8DF83D
:101AA0001010417B8DF81110817B8DF81210C17BD5
:101AB0008DF81310017C8DF81410417C8DF81510F1
:101AC000817C8DF8161001A9024801F0EFFE0BB0E1
:101AD00000BD000000640040000C014010B51F482C
:101AE000016D1F48FFF7F6F84FF47A70FFF7F0FA30
:101AF0001A4841691A48FFF7EDF84FF47A70FFF77A
:101B0000E7FA1648016C1648FFF7E4F84FF47A70CC
:101B1000FFF7DEFA1148016A1148FFF7DBF84FF4CE
:101B20007A70FFF7D5FA4FF47A70FFF7D1FA4FF4D5
:101B30007A70FFF7CDFA0948416A0948FFF7CAF8F9
:101B40004FF47A70FFF7C4FA0448C16A0448FFF7FB
:101B5000C1F84FF47A70FFF7BBFA10BD8400002083
:101B6000004400400648804706480047FEE7FEE77D
:101B7000FEE7FEE7FEE7FEE7FEE7FEE7FEE7FEE73D
:101B8000470900083101000831490143314A116019
:101B9000704770B5002100230F22C47804B32D4C88
:101BA000246804F4E064C4F5E064210AC1F104038C
:101BB000CA40447804FA03F18478144021430901AF
:101BC000254C0678A155047804F01F050124AC408B
:101BD00005786D11AD0005F1E025C5F8004109E07B
:101BE000047804F01F050124AC401C4D06787611E2
:101BF00045F8264070BD1A4A0A400243154B1B1F88
:101C00001A60704739B1134A121D12680243114B12
:101C10001B1D1A6006E00F4A121D126882430D4B0D
:101C20001B1D1A607047042808D14FF0E021096994
:101C300041F004014FF0E022116107E04FF0E02194
:101C4000096921F004014FF0E022116170470000A2
:101C50000000FA050CED00E000E400E080E100E0A7
:101C600080FFFF1F10B50446CC48844208D10121F3
:101C7000042000F02DFB0021042000F029FB46E0A9
:101C8000C748844208D10121082000F021FB00212F
:101C9000082000F01DFB3AE0C248844208D101212F
:101CA000102000F015FB0021102000F011FB2EE0A9
:101CB000BD48844208D10121202000F009FB002109
:101CC000202000F005FB22E0B848844208D1012121
:101CD000402000F0FDFA0021402000F0F9FA16E063
:101CE000B348844208D10121802000F0F1FA00219C
:101CF000802000F0EDFA0AE0AE48844207D10121CD
:101D0000801500F0E5FA0021A01500F0E1FA10BD01
:101D100010B50121084600F0DBFA0021012000F097
:101D2000D7FA10BD2DE9F04102460025002600201B
:101D300000230024002791F803C00CF00F0591F850
:101D400003C00CF0100CBCF1000F03D091F802C0DE
:101D50004CEA050591F800C0BCF1000F31D01468C1
:101D600000202BE04FF0010C0CFA00F3B1F800C09A
:101D70000CEA03069E4220D183004FF00F0C0CFAB0
:101D800003F7BC4305FA03FC4CEA040491F803C0D2
:101D9000BCF1280F06D14FF0010C0CFA00FCC2F880
:101DA00014C00AE091F803C0BCF1480F05D14FF010
:101DB000010C0CFA00FCC2F810C0401C0828D1D35A
:101DC0001460B1F800C0BCF1FF0F34DD546800208E
:101DD0002EE000F1080C4FF0010808FA0CF3B1F8FE
:101DE00000C00CEA03069E4221D183004FF00F0C85
:101DF0000CFA03F7BC4305FA03FC4CEA040491F81F
:101E000003C0BCF1280F05D100F1080C08FA0CF84A
:101E1000C2F8148091F803C0BCF1480F07D100F15B
:101E2000080C4FF0010808FA0CF8C2F81080401CAA
:101E30000828CED35460BDE8F0814FF6FF710180D1
:101E4000022181700421C17070470246002093680E
:101E50000B400BB1012000E000207047014688686C
:101E600080B2704702460020D3680B400BB10120BE
:101E700000E0002070470146C86880B270470161E9
:101E80007047416170470AB1016100E041617047EC
:101E9000C16070474FF480320A4382618161826180
:101EA00082698269704702460020434B18684FF6EA
:101EB0008073184040EA021008433F4B1860704797
:101EC0003E49C8617047F0B50A460023002400214E
:101ED000002500F00046B6F1004F02D1364EF16900
:101EE00001E0354E7168C0F3034583B200F440163B
:101EF000B6F5401F08D121F070612F4E766826F0AC
:101F000070662D4F7E6012E000F48016B6F5801FDB
:101F100006D1032606FA05F4A14341F0706106E0FC
:101F2000460D360103FA06F6B14341F0706122B165
:101F3000460D360103FA06F6314300F00046B6F1CD
:101F4000004F02D11C4EF16101E01B4E7160F0BDEB
:101F500030B500228B071C0F0F2303FA04F2164B37
:101F600008338C1053F824309343134C08348D10ED
:101F700044F8253023468C1053F824308C07240F66
:101F800000FA04F423430C4C08348D1044F8253037
:101F900030BD0A49DC31086070470000000801408C
:101FA000000C0140001001400014014000180140E5
:101FB000001C0140002001400000014000002042C0
:101FC000DF48006840F00100DD49086008464068CD
:101FD000DC490840DA49486008460068DA490840A8
:101FE000D74908600846006820F480200860084649
:101FF000406820F4FE0048604FF41F00886070477E
:10200000CF49096821F48031CD4A11601146096831
:1020100021F480211160B0F5803F03D0B0F5802F0E
:102020000ED106E0C649096841F48031C44A116006
:1020300007E0C349096841F4A021C14A116000E0EA
:1020400000BF00BF704710B50146002200230020EA
:102050004A11012A02D1BA4C236806E0022A02D1B1
:10206000B74C236A01E0B64C636A01F01F020124F9
:1020700094401C400CB1012000E0002010BD38B598
:10208000002000900024002500BF3120FFF7DBFF77
:1020900005460098401C00900098B0F5A06F01D054
:1020A000002DF2D03120FFF7CEFF08B1012400E06F
:1020B0000024204638BD01460020A14A106820F0C7
:1020C000F80040EAC10010607047A04908607047FE
:1020D000024600209A4B586820F47C1042EA010323
:1020E0001843974B586070479849086670470146F7
:1020F0000020934A506820F0030008435060704766
:102100008F48406800F00C007047014600208C4A60
:10211000506820F0F00008435060704701460020EE
:10212000874A506820F4E0600843506070470146D9
:102130000020834A506820F4605040EAC10050609B
:10214000704729B17E4A527A02437D4B5A7204E0AD
:102150007B4A527A82437A4B5A7270477B49D83114
:102160000860704701460020754A506820F44040DE
:102170000843506070470021714A20321170704A44
:1021800082F82010012802D004280AD104E001219D
:102190006B4A2032117005E00521694A2032117026
:1021A00000E000BF00BF704769490860704764499C
:1021B000096A0143624A11627047654944390860FF
:1021C000704730B500210022002400235C4D6D686B
:1021D00005F00C0121B1042905D0082923D105E01F
:1021E0005C4D056022E05B4D05601FE0544D6D685D
:1021F00005F47012524D6D6805F48034022505EB2C
:1022000092421CB9544D554305600BE04C4D6D682E
:1022100005F400351DB1504D5543056002E04D4DAC
:102220005543056002E04B4D056000BF00BF444DC3
:102230006D6805F0F0010909484D6B5C0568DD40EB
:1022400045603F4D6D6805F4E061090A434D6B5CE4
:102250004568DD4085603A4D6D6805F46051C90AF6
:102260003E4D6B5C4568DD40C560354D6D6805F4DD
:102270004041890B3A4D6B5CC568B5FBF3F50561D0
:1022800030BD29B12E4A526902432D4B5A6104E0F8
:102290002B4A526982432A4B5A61704729B1284A16
:1022A00092690243264B9A6104E0254A926982436F
:1022B000234B9A61704729B1214AD2690243204BCE
:1022C000DA6104E01E4AD26982431D4BDA6170472D
:1022D00029B11B4AD2680243194BDA6004E0184A5C
:1022E000D2688243164BDA60704729B1144A1269EA
:1022F0000243134B1A6104E0114A12698243104BE6
:102300001A61704712494039086070470F49C86424
:1023100070470B49C87170470948406A40F08070A7
:1023200007494862704701460020054A92680A4002
:102330000AB1012000E0002070470149887270470F
:10234000001002400000FFF8FFFFF6FE00004242CE
:102350008004424200127A0000093D00040100207E
:102360001401002010B50446FB48844209D1012124
:102370008803FFF7ADFF00214FF48040FFF7A8FF6F
:1023800032E0F648844209D101214804FFF7ADFF4D
:1023900000214FF40030FFF7A8FF25E0F048844209
:1023A00009D101218804FFF7A0FF00214FF480200C
:1023B000FFF79BFF18E0EB48844209D10121C804D4
:1023C000FFF793FF00214FF40020FFF78EFF0BE093
:1023D000E548844208D101210805FFF786FF002166
:1023E0004FF48010FFF781FF10BD2DE9F04786B054
:1023F00005460E460024A24600BFA1460027B0892C
:1024000000B100BF2F462C8A4CF6FF700440F088C4
:1024100004432C82AC894EF6F3100440B088318915
:102420000843718908430443AC81AC8A4FF6FF40EE
:102430000440B0890443AC8201A8FFF7C2FEC6483D
:10244000874202D1DDF810A001E0DDF80CA0A889D8
:1024500000F4004040B10AEBCA0000EB0A103168FA
:102460004900B0FBF1F807E00AEBCA0000EB0A10E4
:1024700031688900B0FBF1F86420B8FBF0F004018A
:102480002009642101FB1089A88900F4004040B1B3
:10249000322000EBC900B0FBF1F000F0070004436C
:1024A00008E0322000EB09106421B0FBF1F000F0ED
:1024B0000F0004432C8106B0BDE8F0874FF416519D
:1024C000016000218180C18001810C2141810021B6
:1024D0008181704710B502460020108A4FF2FF0339
:1024E00018400B884C8823438C882343CC88234393
:1024F0001843108210BD0021018041808180C1807D
:10250000704721B1828942F40052828104E08289BD
:102510004DF6FF731A4082817047F0B503460024E0
:1025200000260025002040F66A17B94200D100BFFE
:102530001846C1F3421401F01F06012707FA06F5F9
:10254000012C01D10C3004E0022C01D1103000E04C
:1025500014301AB107682F43076002E00768AF43E1
:102560000760F0BD1AB1838A0B43838202E0838A3D
:102570008B4383827047028A4FF6F0731A400282BF
:10258000028A0A430282704782894FF2FF731A401F
:10259000828182890A438281704721B1828942F017
:1025A0000202828104E082894FF6FD731A40828123
:1025B0007047028A4FF6DF731A400282028A0A438A
:1025C0000282704721B1028A42F48042028204E012
:1025D000028A4BF6FF731A4002827047C1F3080269
:1025E0008280704701468888C0F30800704781895F
:1025F00041F0010181817047028BD2B20283028BCC
:1026000042EA012202837047028B02F47F42028376
:10261000028B0A430283704721B1828A42F0200272
:10262000828204E0828A4FF6DF731A40828270470A
:1026300021B1828A42F01002828204E0828A4FF63F
:10264000EF731A408282704721B1828A42F00802F9
:10265000828204E0828A4FF6F7731A4082827047C2
:1026600021B1828942F40042828103E08289C2F36F
:102670000E028281704721B1828A42F40062828216
:1026800004E0828A4FF2FF731A4082827047828A86
:102690004FF6FB731A408282828A0A438282704715
:1026A00021B1828A42F00202828204E0828A4FF6DD
:1026B000FD731A408282704702460020B1F5007F08
:1026C00000D100BF13880B400BB1012000E00020B7
:1026D000704701F40072B2F5007F00D100BFCA4319
:1026E0000280704770B502460024002300250020B8
:1026F00040F66A16B14200D100BFC1F3421501F0A5
:102700001F03012606FA03F3012D02D196893340F7
:1027100006E0022D02D1168A334001E0968A33404A
:102720000C12012606FA04F41688344013B10CB1D9
:10273000012000E0002070BD10B50022002340F60B
:102740006A14A14200D100BF0A1201249440A3B22E
:10275000DC43048010BD000000380140004400400C
:1027600000480040004C00400050004010B50446B6
:10277000FE48844208D10121C014FFF7A9FD0021C1
:10278000E014FFF7A5FDC4E0B4F1804F08D10121AA
:102790000846FFF7AAFD00210120FFF7A6FDB8E0DB
:1027A000F348844208D101210220FFF79EFD002159
:1027B0000220FFF79AFDACE0EE48844208D10121E7
:1027C0000420FFF792FD00210420FFF78EFDA0E01A
:1027D000E948844208D101210820FFF786FD002145
:1027E0000820FFF782FD94E0E448844208D10121EB
:1027F0001020FFF77AFD00211020FFF776FD88E01A
:10280000DF48844208D101212020FFF76EFD00211E
:102810002020FFF76AFD7CE0DA48844208D10121DC
:102820004014FFF755FD00216014FFF751FD70E0E3
:10283000D548844209D10121C804FFF749FD002190
:102840004FF40020FFF744FD63E0D048844209D1F3
:1028500001210805FFF73CFD00214FF48010FFF730
:1028600037FD56E0CA48844209D101214805FFF7E7
:102870002FFD00214FF40010FFF72AFD49E0C54865
:10288000844208D101214020FFF72FFD0021402084
:10289000FFF72BFD3DE0C048844208D10121802094
:1028A000FFF723FD00218020FFF71FFD31E0BB482B
:1028B000844208D101218015FFF717FD0021A015E2
:1028C000FFF713FD25E0B648844209D10121080431
:1028D000FFF7FEFC00214FF48030FFF7F9FC18E011
:1028E000B048844209D101214804FFF7F1FC0021DE
:1028F0004FF40030FFF7ECFC0BE0AB48844208D10A
:1029000001218804FFF7E4FC00214FF48020FFF749
:10291000DFFC10BD00220288944B98420ED0994BE8
:1029200098420BD0B0F1804F08D0914B984205D01F
:10293000904B984202D0904B984204D14FF68F733F
:102940001A404B881A438D4B984207D08C4B9842C3
:1029500004D04FF6FF431A40CB881A4302808B887D
:1029600083850B880385814B98420BD0854B984219
:1029700008D08B4B984205D08A4B984202D08A4BA4
:10298000984201D10B7A038601238382704770B588
:10299000002400220023058C4FF6FE763540058486
:1029A000028C8388048B4FF68F752C40B51E2C400B
:1029B0000D882C43751E2A400D892A434D882A43D1
:1029C0006A4DA8420BD06F4DA84208D0744DA84262
:1029D00005D0744DA84202D0734DA84213D14FF6D2
:1029E000F7752A404D892A434FF6FB752A408D889A
:1029F0002A434FF6FF652B404FF6FF552B408D893C
:102A00002B43CD892B4383800483CD888586028424
:102A100070BD70B5002400220023058C4FF6EF76C0
:102A200035400584028C8388048B48F6FF752C4062
:102A30004FF6FF452C400D884FF6FF7606EA052538
:102A40002C434FF6DF752A400D8906EA05152A4307
:102A50004D8806EA05152A43444DA84202D0494D47
:102A6000A8421DD14FF67F752A404D894FF6FF765B
:102A700006EA05152A434FF6BF752A408D8806EAF7
:102A800005152A434FF6FF352B404FF2FF752B40BB
:102A90008D8906EA85052B43CD8906EA85052B43FA
:102AA00083800483CD880587028470BD70B50024BF
:102AB00000220023058C4FF6FF6635400584028C0A
:102AC0008388848B4FF68F752C404FF6FC752C4015
:102AD0000D882C434FF6FF552A400D894FF6FF769F
:102AE00006EA05252A434D8806EA05252A431F4D97
:102AF000A84202D0234DA8421DD14FF2FF752A40B3
:102B00004D894FF6FF7606EA05252A434FF6FF3535
:102B10002A408D8806EA05252A434EF6FF752B408C
:102B20004DF6FF752B408D8906EA05152B43CD899F
:102B300006EA05152B4383808483CD88858702842C
:102B400070BD70B5002200230024058C4EF6FF7680
:102B500035400584038C8488828B48F6FF752A40B3
:102B60004FF6FF452A400D8820E00000002C014070
:102B70000004004000080040000C0040001000402D
:102B80000014004000340140004C0140005001405E
:102B90000054014000180040001C0040002000408C
:102BA0000040014000440140004801404FF6FF76DC
:102BB00006EA05252A434DF6FF752B400D8906EAE6
:102BC00005352B434D8806EA05352B43FA4DA842BF
:102BD00002D0FA4DA84208D14BF6FF752C408D89E2
:102BE0004FF6FF7606EA85152C4384808283CD88D4
:102BF000A0F84050038470BD828B4FF2FF331A401F
:102C00008283828B4FF6FF7303EA01231A43828388
:102C10007047F0B50C461546002200210026078CAF
:102C20004EF6FF7C07EA0C070784828B018C4FF677
:102C3000FF7707EA043640F6FF473A404FF6FF7742
:102C400007EA05273A434FF6FF7707EA03373A4387
:102C5000D94FB8420ED0D94FB8420BD0B0F1804F07
:102C600008D0D74FB84205D0D64FB84202D0D64F81
:102C7000B84206D14DF6FF77394046F480573943C4
:102C800005E047F6FF57394044F4805739438283C3
:102C90000184F0BD828B4FF6F3731A408283828BDE
:102CA0000A4382837047F0B50C4615460022002186
:102CB0000026078C4FF6FF6C07EA0C070784828B0F
:102CC000018C4FF6FF7707EA04264FF60C773A405F
:102CD0004FF6FF7707EA03172F433A43B64FB84240
:102CE0000ED0B64FB8420BD0B0F1804F08D0B44FE1
:102CF000B84205D0B34FB84202D0B34FB84206D164
:102D00004FF6FF57394046F48077394305E04FF2DC
:102D1000FF57394044F48077394382830184F0BD02
:102D2000028B4FF2FF331A400283028B4FF6FF7380
:102D300003EA01231A4302837047F0B50C46154697
:102D4000002200210026078C4FF6EF7C07EA0C07D3
:102D50000784028B018C4FF6FF7707EA041640F6D2
:102D6000FF473A404FF6FF7707EA03373A434FF6FB
:102D7000FF7707EA05273A438F4FB8420ED08F4FAF
:102D8000B8420BD0B0F1804F08D08D4FB84205D07B
:102D90008C4FB84202D08C4FB84206D14FF6DF7745
:102DA000394046F01007394305E04FF65F77394068
:102DB00044F01007394302830184F0BD028B4FF6C3
:102DC000F3731A400283028B0A4302837047F0B503
:102DD0000C46154600220021068C4FF6FE773E4039
:102DE0000684028B018C4FF60C7632407E1C06EA7C
:102DF00003162E433243704EB0420ED06F4EB04297
:102E00000BD0B0F1804F08D06D4EB04205D06D4E62
:102E1000B04202D06C4EB04206D14FF6FD76314042
:102E200044F00106314305E04FF6F576314044F0B9
:102E30000106314302830184F0BD70B505460C469E
:102E40005D4885420ED05D4885420BD0B5F1804F7C
:102E500008D05B48854205D05A48854202D05A487E
:102E6000854200D100E000BF208850B92389A288A4
:102E700061882846FFF7ABFFE1882846FFF79EFFF1
:102E800025E0208804280AD12389A2886188284661
:102E9000FFF753FFE1882846FFF742FF17E020883D
:102EA00008280AD12389A28861882846FFF7FBFEFB
:102EB000E1882846FFF7EEFE09E02389A2886188B1
:102EC0002846FFF7A6FEE1882846FFF795FE70BD6D
:102ED0002DE9F04105460C4600260127608808B917
:102EE000022600E00026A088012801D1022700E088
:102EF00001272088A0B92389A28861882846FFF786
:102F000066FFE1882846FFF759FF23893A46314694
:102F10002846FFF712FFE1882846FFF701FF13E07C
:102F20002389A28861882846FFF707FFE1882846A1
:102F3000FFF7F6FE23893A4631462846FFF747FF5A
:102F4000E1882846FFF73AFFBDE8F0810A884B8800
:102F50001A438B881A43CB881A430B891A434B892F
:102F60001A438B891A43A0F8442070474FF6FF712B
:102F7000818000210180C180418001727047002161
:102F8000018041808180C180018141818181C18135
:102F90007047002101804180012181800021C18092
:102FA000018170470021018041808180C1800181C1
:102FB0004181818170470000002C014000340140B4
:102FC0000004004000080040000C004021B10288CD
:102FD00042F00102028004E002884FF6FE731A40BC
:102FE0000280704731B1B0F8442042F40042A0F8AA
:102FF000442005E0B0F84420C2F30E02A0F84420BB
:1030000070471AB183890B43838102E083898B4324
:10301000838170478182704741EA0203A0F84830FB
:1030200070471AB183890B43838102E083898B4304
:103030008381704701894FF6F87211400181704712
:103040000A46002101894FF68F731940114301810F
:10305000704730B504460D4629462046FFF7F0FF7D
:10306000208940F00700208130BD2DE9F041044661
:103070000D4616461F46602D06D13B4601223146BD
:103080002046FFF75AFE05E03B4601223146204626
:10309000FFF79DFE29462046FFF7D2FF208940F02A
:1030A00007002081BDE8F08130B50C460021018980
:1030B000C9B24FF6FF7505EA032515432543294399
:1030C000018130BD2DE9F04105460E461746984670
:1030D000002443463A4631462846FFF7E5FF2C894F
:1030E0004FF6F870044044F007044FF68F70044028
:1030F00044F070042C81BDE8F081F0B504460D4623
:1031000016461F463B46324629462046FFF7CCFF6F
:10311000208940F480402081F0BD01858282704783
:103120000A46002101884FF68F7319401143018030
:103130007047F0B50C4615461E46002100220023BC
:103140000189028B038C4FF6F877394021434FF603
:10315000FC473A4040F201173A434FF6DD773B40D7
:103160004FF6FF7707EA06172F433B43018102839F
:103170000384F0BD0A460021018B4FF68F7319407E
:103180001143018370470A460021018B48F6FF7303
:1031900019404FF6FF7303EA022319430183704776
:1031A0000A460021818B4FF68F73194011438183AA
:1031B00070470A460021818B48F6FF7319404FF68D
:1031C000FF7303EA022319438183704721B1028808
:1031D00042F08002028004E002884FF67F731A40BA
:1031E0000280704721B1828842F00402828004E0AC
:1031F00082884FF6FB731A408280704721B1828823
:1032000042F00802828004E082884FF6F7731A4089
:103210008280704721B1828842F00102828004E0FE
:1032200082884FF6FE731A40828070470A4600215A
:10323000018B4FF6F77319401143018370470A461B
:103240000021018B4FF2FF7319404FF6FF7303EA21
:1032500002231943018370470A460021818B4FF6F0
:10326000F77319401143818370470A460021818B0F
:103270004FF2FF7319404FF6FF7303EA022319431D
:10328000818370470A460021018B4FF6FB7319407A
:103290001143018370470A460021018B4FF6FF332B
:1032A00019404FF6FF7303EA022319430183704765
:1032B0000A460021818B4FF6FB731940114381832D
:1032C00070470A460021818B4FF6FF3319404FF6B5
:1032D000FF7303EA02231943818370470A460021E2
:1032E000018B4FF67F7319401143018370470A46E3
:1032F0000021018BC1F30E014FF6FF7303EA022395
:103300001943018370470A460021818B4FF67F7372
:1033100019401143818370470A460021818BC1F314
:103320000E014FF6FF7303EA0223194381837047AE
:103330000A460021018C4FF6FD73194011430184A8
:1033400070470A460021018C4FF6F773194011436C
:10335000018470470A460021018C4FF6DF73194043
:103360004FF6FF7303EA02131943018470470A46BC
:103370000021018C4FF67F7319404FF6FF7303EA6B
:1033800002131943018470470A460021018C4FF64D
:10339000FF5319404FF6FF7303EA022319430184D8
:1033A00070470A460021018C4FF2FF7319404FF617
:1033B000FF7303EA02231943018470470A46002180
:1033C000018C4DF6FF7319404FF6FF7303EA023389
:1033D00019430184704730B5002301248C40A3B207
:1033E000048C9C430484048C02FA01F5ADB22C4396
:1033F000048430BD30B5002304248C40A3B2048C77
:103400009C430484048C02FA01F5ADB22C4304847D
:1034100030BD70B503460020002418461830012541
:103420008D40ACB21D8CA5431D8409B1082909D17A
:1034300000EB6100056825F070050560056815431F
:1034400005600EE00D1FC5F34E052844056825F400
:10345000E045056005684FF6FF7606EA022635432B
:10346000056070BD21B1028842F00202028004E0D2
:1034700002884FF6FD731A400280704721B102881E
:1034800042F00402028004E002884FF6FB731A4007
:103490000280704721B1828842F08002828004E07D
:1034A00082884FF67F731A408280704702884FF6F9
:1034B000F7731A40028002880A43028070478288AC
:1034C0004FF68F731A40828082880A438280704749
:1034D00002894FF6F8731A40028102890A43028179
:1034E000704702894FF67F731A40028102890A43AE
:1034F000028170478184704781857047818670475B
:103500000187704781877047A0F840107047028894
:103510004FF6FF431A40028002880A430280704738
:103520000146888E70470146088F70470146888F94
:1035300070470146B1F8400070470146888C7047DB
:103540000146088D704702460020138A0B400BB1DC
:10355000012000E000207047CA430282704730B566
:103560000246002000230024158A05EA01039589FC
:1035700005EA010413B10CB1012000E0002030BDC8
:10358000CA4302827047000010B50446FE488442D8
:1035900009D101214806FEF7A8FE00214FF0007076
:1035A000FEF7A3FE08E001218806FEF79EFE00213B
:1035B0004FF08060FEF799FE10BD30B50246002046
:1035C0000023146824F002041460146844F0010419
:1035D000146000E05B1C546804F001041CB94FF651
:1035E000FF74A342F6D1546804F001040CB9002022
:1035F0006CE08C79012C04D1146844F080041460D0
:1036000003E0146824F080041460CC79012C04D108
:10361000146844F04004146003E0146824F040048B
:1036200014600C7A012C04D1146844F02004146056
:1036300003E0146824F0200414604C7A012C04D1B7
:10364000146844F01004146003E0146824F01004BB
:1036500014608C7A012C04D1146844F008041460BE
:1036600003E0146824F008041460CC7A012C04D11F
:10367000146844F00404146003E0146824F00404A3
:1036800014608C78A407CD7844EA05640D7944EA87
:1036900005444D7944EA05540D886D1E2C43D461D0
:1036A000146824F001041460002300E05B1C5468DB
:1036B00004F001041CB14FF6FF74A342F6D1546824
:1036C00004F001040CB1002000E0012030BD10B571
:1036D0000021837A012202FA03F1AC4A126842F017
:1036E0000102AA4B1A60A94A1C3212688A43A74BEE
:1036F0001C331A60027BCAB9A44A0C3212688A438E
:10370000A24B0C331A604288C38842EA03439F4AA3
:103710004032847A42F834300288838842EA034394
:103720009A4A4032847A02EBC4025360027B012A37
:1037300019D1964A0C3212680A43944B0C331A6022
:103740004288038842EA0343904A4032847A42F82E
:103750003430C288838842EA03438C4A4032847AF8
:1037600002EBC4025360C27A3AB9884A121D126849
:103770008A43864B1B1D1A6006E0844A121D12689C
:103780000A43824B1B1D1A60028932B97F4A1432E8
:1037900012688A437D4B14331A600289012A06D1CC
:1037A0007A4A143212680A43784B14331A60427B07
:1037B000012A06D1754A1C3212680A43734B1C3326
:1037C0001A60724A126822F00102704B1A6010BD32
:1037D00000218171C171017241728172C172817067
:1037E000C1700321017102214171012101807047E3
:1037F0006649096841F00101644A1160114609688F
:1038000043F60E729143614A11601146096841EA1C
:10381000002111601146096821F001011160704713
:1038200021B1026842F48032026003E0026822F4AF
:10383000803202607047E1B1026842F080020260AB
:103840004FF4C272125842F480734FF4C272135094
:103850004FF4CA72125842F480734FF4CA72135074
:103860004FF4D272125842F480734FF4D272135054
:103870001BE0026822F0800202604FF4C27212580C
:1038800022F480734FF4C27213504FF4CA7212586C
:1038900022F480734FF4CA7213504FF4D27212584C
:1038A00022F480734FF4D2721350704710B5024661
:1038B0000020936803F08063B3F1806F00D110E0C3
:1038C000936803F00063B3F1006F01D1012008E0B9
:1038D000936803F08053B3F1805F01D1022000E0D0
:1038E0000420042879D002F5C07303EB00131B6891
:1038F00003F0010402F5C07303EB00131C600B7AA4
:103900007BB94B7A0C8843EA445302F5C07404EB4C
:1039100000142468234302F5C07404EB00142360F0
:1039200010E00B7A4C6843EAC4034C7A234302F557
:10393000C07404EB00142468234302F5C07404EB44
:10394000001423608B7A03F00F038B7202F5C073AF
:1039500003EB00135B6823F00F0402F5C07303EB65
:1039600000135C6002F5C07303EB00135B688C7A94
:10397000234302F5C07404EB001463608B7B1C06C8
:103980004B7B44EA034403E00064004000660040CF
:103990000B7B44EA0323CC7A234302F5C07404EB87
:1039A0000014A3608B7C1C064B7C44EA03440B7C14
:1039B00044EA0323CC7B234302F5C07404EB0014D8
:1039C000E36002F5C07303EB00131B6843F00104CE
:1039D00002F5C07303EB00131C6010BD10B5024666
:1039E000002321B1012907D002290FD109E09068F5
:1039F000F94C00EA04030BE09068F84C00EA040379
:103A000006E09068F64C00EA040301E0002300BFE2
:103A100000BFF44C181BA34216D007DC83B16FF033
:103A20008060184470B1022818D111E0B0F5007F11
:103A300010D0ED4C204448B1B0F5003F0ED10BE062
:103A400002230DE000230BE0002309E0002307E040
:103A5000012305E0012303E0012301E0002300BF6F
:103A600000BFD8B210BD21B1012907D002290FD162
:103A700009E0826842F0800282600AE0826842F4D3
:103A80000042826005E0826842F40002826000E049
:103A900000BF00BF704710B500F5D87303EB0113EA
:103AA0001B6803F004031372137A53B900F5D8733B
:103AB00003EB01131B6840F2FF7404EA53531360D5
:103AC00009E000F5D87303EB01131B686FF0604445
:103AD00004EAD303536000F5D87303EB01131B68AA
:103AE00003F00203537200F5D87303EB01135B6814
:103AF00003F00F03937200F5D87303EB01135B68B7
:103B00001B0AD37400F5D87303EB01139B68D372BF
:103B100000F5D87303EB01139B681C0A147300F5BE
:103B2000D87303EB01139B681C0C547300F5D87316
:103B300003EB01139B681B0E937300F5D87303EB23
:103B40000113DB68D37300F5D87303EB0113DB6853
:103B50001C0A147400F5D87303EB0113DB681C0C0A
:103B6000547400F5D87303EB0113DB681B0E9374D8
:103B700021B9C36843F02003C36003E0036943F045
:103B80002003036110BD21B9C26842F02002C26067
:103B900003E0026942F02002026170470246002001
:103BA00019B9D36803F0030006E0012903D11369B2
:103BB00003F0030000E00020704710B502460B46FA
:103BC00000204FF6FF71BBB9146824F0020444F0E2
:103BD0000104146000E0491E546804F00304012C41
:103BE00001D00029F7D1546804F00304012C01D05E
:103BF000002032E0012030E0012B13D1146824F0C2
:103C00000304146000E0491E546804F003040CB17E
:103C10000029F8D1546804F003040CB100201CE022
:103C200001201AE0022B17D1146824F0010444F09B
:103C30000204146000E0491E546804F00304022CDE
:103C400001D00029F7D1546804F00304022C01D0FC
:103C5000002002E0012000E0002010BD014600200D
:103C60000A6822F0010242F002020A604A6802F089
:103C70000302022A00D10120704701464FF6FF726D
:103C800000200B6823F002030B6000E0521E4B681B
:103C900003F00203022B01D1002AF7D14B6803F095
:103CA0000203022B00D001207047014600208A69E0
:103CB00002F070007047014600208A69100E7047BC
:103CC000014600208A69C2F3074070471AB1436970
:103CD0000B43436102E043698B434361704710B576
:103CE0000246002001F4700343B19369C1F3130449
:103CF00023400BB101202DE000202BE001F0807368
:103D000043B15368C1F3130423400BB1012021E0F8
:103D100000201FE001F0006343B19368C1F3130476
:103D200023400BB1012015E0002013E001F00073E7
:103D300043B1D368C1F3130423400BB1012009E060
:103D4000002007E01369C1F3130423400BB10120E5
:103D500000E0002010BD0022244B994202D1002334
:103D6000836111E0C1F3130201F000730BB1C26073
:103D70000AE001F080630BB1026105E001F000632D
:103D80000BB1826000E0426070470246002002EA08
:103D900001030BB1012000E00020704770B504461C
:103DA0000D46002660692840002872D0B5F5807F56
:103DB00069D01DDC082D42D006DC012D2DD0022D4E
:103DC00031D0042D7FD134E0102D3ED0202D42D0B3
:103DD000402D78D145E000000300000400030008F6
:103DE00000000310000100080001FFF77000F03030
:103DF000B5F5004F61D009DCB5F5007F4AD0B5F5C7
:103E0000806F4DD0B5F5006F5DD150E0B5F5803FC6
:103E10002DD0B5F5003F56D12FE0A0685549FFF7EA
:103E2000B4FF064651E0E0680321FFF7AEFF064607
:103E30004BE0E0680821FFF7A8FF064645E0E06890
:103E40001021FFF7A2FF06463FE020690321FFF79C
:103E50009CFF064639E020690821FFF796FF0646D9
:103E600033E020691021FFF790FF06462DE06068DF
:103E70000821FFF78AFF064627E060681021FFF758
:103E800084FF064621E0A0690121FFF77EFF064678
:103E90001BE01BE0A0690221FFF777FF064614E054
:103EA000A0690421FFF771FF06460EE00BE0A06950
:103EB0007021FFF76AFF064607E060680421FFF7FC
:103EC00064FF064601E0002600BF00E00026304601
:103ED00070BDB1F5007F3AD00FDC202928D006DC78
:103EE00001291CD004291DD0082940D11DE04029FA
:103EF00021D0B1F5807F3AD126E0B1F5004F31D025
:103F000006DCB1F5806F25D0B1F5006F2FD124E02C
:103F1000B1F5803F12D0B1F5003F28D111E0154A2C
:103F2000826025E00822C26022E01022C2601FE009
:103F3000082202611CE01022026119E0082242609E
:103F400016E01022426013E00422426010E00422D6
:103F500042600DE0042242600AE0002282610422F5
:103F6000426005E0002282610422426000E000BF5E
:103F700000BF70470101010008B50720009002E072
:103F80000098401E009000980028F9D108BD08B59F
:103F900001210820FEF782F9C020ADF800000320BF
:103FA0008DF8020014208DF803006946D648FDF70D
:103FB000B9FE08BD10B58020D349103108604020FB
:103FC0000860FFF7D9FFD0480830006808B9012021
:103FD00000E0002000F0800008B1002010BD80202B
:103FE000C94914310860FFF7C7FFC74808300068A7
:103FF00000F0800008B10020F0E78020C2491431B1
:104000000860FFF7B9FF0120E8E710B54020BE497E
:1040100014310860FFF7B0FF8020BB4914310860FD
:10402000FFF7AAFF4020B84910310860FFF7A4FF4E
:104030008020B54910310860FFF79EFF10BD10B514
:104040004020B14914310860FFF796FF8020AE4947
:1040500014310860FFF790FF4020AB491031086031
:10406000FFF78AFF4020A84914310860FFF784FF5A
:1040700010BD10B54020A44914310860FFF77CFF43
:104080008020A14910310860FFF776FF40209E494B
:1040900010310860FFF770FF40209B491431086021
:1040A000FFF76AFF10BD10B5402097491431086032
:1040B000FFF762FF8020944910310860FFF75CFF32
:1040C0004020914910310860FFF756FF8E480830B4
:1040D000006800F0800028B140208B49143108604E
:1040E000002010BD40208849143108600120F8E705
:1040F00070B5044608251BE0402083491431086050
:10410000FFF73AFF04F0800020B180207E49103193
:10411000086003E080207C49143108606006040ECA
:10412000FFF72AFF4020784910310860FFF724FF8D
:104130002800A5F10101CDB2DED140207249143131
:10414000086070BD70B50825002480206E491031CC
:10415000086015E06006040E40206B4914310860C9
:10416000FFF70AFF4020684910310860FFF704FF9D
:1041700065480830006800F0800008B144F0010490
:104180002800A5F10101CDB2E4D140205E491431EF
:104190000860204670BD2DE9F04105460E461746E1
:1041A0009846FFF707FF10B90020BDE8F081002115
:1041B00041EA4501C8B2FFF79BFFFFF774FF18B94A
:1041C000FFF723FF0020F0E73046FFF791FFFFF7EE
:1041D0006AFF00240BE018F80400FFF789FFFFF7DF
:1041E00062FF18B9FFF711FF0020DEE7641CBC4234
:1041F000F1DBFFF70AFF0120D7E72DE9F041044684
:104200000D4616461F463B46324629462046FFF7D6
:10421000C2FF10B10020BDE8F0814FF0FF30FAE797
:104220002DE9F04105460F4614461E46FFF7C2FE33
:1042300010B90020BDE8F081002141EA4501C8B273
:10424000FFF756FFFFF72FFF18B9FFF7DEFE00203C
:10425000F0E73846FFF74CFFFFF725FFFFF7AAFE10
:10426000012101EB4501C8B2FFF742FFFFF71BFF39
:104270000CE0FFF767FF3070012C02D1FFF7F9FE69
:1042800001E0FFF7DCFE761C601EC4B2002CF0D10A
:10429000FFF7BBFE0120CDE72DE9F04104460D46B6
:1042A00016461F463B46324629462046FFF7B8FFD2
:1042B00010B10020BDE8F0814FF0FF30FAE770B593
:1042C00004460D461646FFF775FE08B9002070BD7E
:1042D000002141EA4401C8B2FFF70AFFFFF7E3FEFD
:1042E00018B9FFF792FE0020F1E72846FFF700FF1C
:1042F000FFF7D9FE3046FFF7FBFEFFF7D4FEFFF7CE
:1043000084FE0120E3E70000000C014078B503467D
:104310000A4600200546044601468DF800008DF847
:10432000010000241CE0521E9DF800509DF8010081
:104330008DF8000000208DF80100185D80EA05016D
:104340009DF800000B4E16F8116070408DF80000CB
:10435000012000EB4100074E305C8DF80100641C29
:10436000002AE0D19DF801609DF8000006EB0020D6
:1043700078BD0000A2470008421C10F8011B00296C
:10438000FBD1801A70472DE9F04D81EA030404F057
:10439000004B21F0004514464FF0000A23F0004185
:1043A00050EA050220D054EA01021DD0C5F30A5795
:1043B0000246C5F31303C1F31300C1F30A5640F4D8
:1043C000801543F48013A7EB0608101BD64608F2AD
:1043D000FD3873EB050002D308F1010801E09218E3
:1043E0005B41B8F1000F03DA00200146BDE8F08D13
:1043F00000204FF48011064684460EE0171B73EB35
:10440000050705D3121B63EB050306434CEA010CB9
:1044100049084FEA300092185B4150EA0107EDD19C
:1044200052EA030012D082EA040083EA050108433D
:1044300005D0101BAB4106D20122002306E000226A
:104440004FF0004302E06FF0010253101AEB060038
:104450004CEB085110EB0A0041EB0B01BDE8F04DAD
:1044600000F04CB80EB540F2334102910021CDE985
:1044700000110A460B4600F050F803B000BDC1F32E
:104480000A5210B5C1F3130140F2FF3341F4801119
:104490009A4201DA002010BD40F233439A42A2F260
:1044A000334203DC524200F019F810BD904010BDB9
:1044B00030B50B46014600202022012409E021FAF4
:1044C00002F59D4205D303FA02F5491B04FA02F5F1
:1044D0002844151EA2F10102F1DC30BD202A04DBC4
:1044E000203A21FA02F00021704721FA02F3D0406D
:1044F000C2F12002914008431946704710B5141EBE
:1045000073F1000408DA401C41F1000192185B418C
:104510001A4301D120F0010010BD2DE9F04D924663
:104520009B4611B1B1FA81F202E0B0FA80F220327A
:10453000904600F053F804460F4640EA0A0041EA6C
:104540000B0153465A46084313D0114653EA010063
:1045500019D0C8F140025046FFF7C0FF05460E468D
:1045600050465946424600F039F8084305D001202C
:1045700004E020463946BDE8F08D0020054346EAB8
:10458000E0762C4337430A986305E40AA0EB080061
:104590000022FD0A44EA47540A3002D500200146B1
:1045A000E9E7010510196941DDE90845001969418C
:1045B000BDE8F04DA2E70000064C074D06E0E068BC
:1045C00040F0010394E8070098471034AC42F6D35A
:1045D000FBF7B2FD5C4B00087C4B0008202A04DB93
:1045E000203A00FA02F1002070479140C2F1200306
:1045F00020FA03F319439040704700000FB4084BB2
:1046000010B504A902AA039800F01CF8044602A9F8
:10461000002000F0C1F8204610BC5DF814FB00003B
:104620009947000802E008C8121F08C1002AFAD101
:1046300070477047002001E001C1121F002AFBD122
:10464000704700002DE9FF4F89B09B4604460025C6
:1046500006E025280BD05A460B999047641C6D1C28
:1046600020780028F5D10DB02846BDE8F08F00274E
:10467000B8460122474900E0074314F8013F203BB8
:1046800002FA03F00842F7D120782E2819D114F845
:10469000010F47F004072A280ED06FF02F02207870
:1046A000A0F1300109290CD808EB880102EB410187
:1046B00000EB0108641CF2E70A98641C50F8048BB4
:1046C0000A9020780028CED0642808D0692806D027
:1046D00075281ED05A460B9990476D1C58E00A99D0
:1046E0004FF00A0901C90A91002802DA40422D213F
:1046F00002E0390504D52B218DF82010012103E0BB
:10470000F90704D02021F7E78A4608AE0DE0002122
:10471000FAE70A994FF00A0901C90A91F7E74946F1
:10472000FFF7C6FE303106F8011D0028F7D1ADEBCA
:10473000060000F12009780701D44FF00108C845B0
:1047400002DDA8EB090000E000208046002706E01B
:1047500008A85A46C05D0B9990476D1C7F1C5745B1
:10476000F6DB04E030205A460B9990476D1CB8F1F7
:104770000001A8F10108F5DC05E016F8010B5A4626
:104780000B9990476D1CB9F10001A9F10109F4DC06
:10479000641C65E7092801000A68531C0B6010704F
:1047A00070470000102120423063408450A560C64D
:1047B00070E781089129A14AB16BC18CD1ADE1CEDE
:1047C000F1EF123102103273225252B5429472F755
:1047D00062D693398318B37BA35AD3BDC39CF3FF2E
:1047E000E3DE246234430420140164E674C744A465
:1047F0005485A56AB54B85289509E5EEF5CFC5AC7E
:10480000D58D365326721611063076D766F6569534
:1048100046B4B75BA77A97198738F7DFE7FED79DCD
:10482000C7BC48C458E5688678A7084018612802C4
:104830003823C9CCD9EDE98EF9AF89489969A90A1D
:10484000B92B5AF54AD47AB76A961A710A503A3394
:104850002A12DBFDCBDCFBBFEB9E9B798B58BB3B6D
:10486000AB1A6CA67C874CE45CC52C223C030C6024
:104870001C41EDAEFD8FCDECDDCDAD2ABD0B8D68BD
:104880009D497E976EB65ED54EF43E132E321E5174
:104890000E70FF9FEFBEDFDDCFFCBF1BAF3A9F590D
:1048A0008F78918881A9B1CAA1EBD10CC12DF14EAD
:1048B000E16F108000A130C220E350044025704613
:1048C000606783B99398A3FBB3DAC33DD31CE37F3E
:1048D000F35E02B1129022F332D242355214627763
:1048E0007256B5EAA5CB95A88589F56EE54FD52C0E
:1048F000C50D34E224C314A00481746664475424B3
:104900004405A7DBB7FA879997B8E75FF77EC71D1D
:10491000D73C26D336F2069116B066577676461502
:104920005634D94CC96DF90EE92F99C889E9B98A6D
:10493000A9AB584448657806682718C008E1388252
:1049400028A3CB7DDB5CEB3FFB1E8BF99BD8ABBB7D
:10495000BB9A4A755A546A377A160AF11AD02AB3A2
:104960003A92FD2EED0FDD6CCD4DBDAAAD8B9DE8CD
:104970008DC97C266C075C644C453CA22C831CE0F2
:104980000CC1EF1FFF3ECF5DDF7CAF9BBFBA8FD95D
:104990009FF86E177E364E555E742E933EB20ED142
:1049A0001EF0000041542B43574A41503D225353BF
:1049B0004944222C2250415353574F5244220D0A4E
:1049C0000000000041542B43494F424155443D31C2
:1049D00031353230300D0A0041542B434950534594
:1049E000525645523D312C383038300D0A00000007
:1049F000415445300D0A000041542B43574D4F445C
:104A0000453D310D0A00000041542B4349504D559E
:104A1000583D310D0A000000415445310D0A000097
:104A200041542B43574D4F44453D320D0A00000081
:104A300041542B43575341503D226C6C6A31323301
:104A4000222C2230313233343536373839222C316A
:104A5000312C330D0A00000041542B43495053546C
:104A60004152543D3F0D0A0041542B43574D4F4492
:104A7000453F0D0A0000000041542B43574A415066
:104A80003F0D0A0041542B43574C49460D0A000084
:104A90004F4B0D0A0000000041542B43574C41502E
:104AA0000D0A000041542B43575141500D0A00009C
:104AB00041542B474D520D0A0000000041542B4336
:104AC000494653520D0A000041542B434950535458
:104AD000415455530D0A000041540D0A00000000D6
:104AE00041542B5253540D0A000000006275737933
:104AF00020702E2E2E0000006275737920696E657D
:104B0000742E2E2E000000003A00000041542B436A
:104B10004950434C4F53453D000000002B49504441
:104B20000000000053454E44204F4B004552524F69
:104B3000520000004C696E6B00000000556E6C69FD
:104B40006E6B000077726F6E672073796E74617898
:104B50000000000072656164790000007C4B000871
:104B6000000000201801000024460008944C0008B2
:104B70001801002008060000344600080000050067
:104B80000A00000000000700090000050000000006
:104B900000000000000000000000000000A24A0425
:104BA00000000000000000000102030406070809DD
:104BB00000000000000000000000000000000000F5
:104BC00000000000000000000000000000000000E5
:104BD00000000000000000000000000000000000D5
:104BE00000000000000000000000000000000000C5
:104BF00000000000000000000000000000000000B5
:104C0000D84A0008C84A0008984A0008B04A000874
:104C1000684A0008204A0008A4490008784A0008A9
:104C2000E04A0008084A0008C4490008D8490008BA
:104C3000BC4A0008584A0008844A0008A44A0008F0
:104C4000304A0008F04900080C4B0008F8490008F9
:104C5000184A0008544B0008344B00083C4B00082D
:104C6000904A0008244B00081C4B00082C4B0008FD
:104C7000444B0008EC4A0008F84A0008084B0008BA
:104C800000000000010203040102030406070809F2
:044C9000020406080C
:0400000508000131BD
:00000001FF
